02:28:01.953843 ARP, Request who-has 192.168.1.17 tell 192.168.1.1, length 28
	0x0000:  0001 0800 0604 0001 78bb c11d 3e18 c0a8  ........x...>...
	0x0010:  0101 0000 0000 0000 c0a8 0111            ............
02:28:02.784794 IP 192.168.1.66.57580 > 140.82.112.26.443: Flags [.], ack 4181155075, win 469, options [nop,nop,TS val 636198545 ecr 4052886973], length 0
	0x0000:  4500 0034 23b8 4000 4006 58b5 c0a8 0142  E..4#.@.@.X....B
	0x0010:  8c52 701a e0ec 01bb 6102 6aee f937 5d03  .Rp.....a.j..7].
	0x0020:  8010 01d5 be7d 0000 0101 080a 25eb 9e91  .....}......%...
	0x0030:  f192 25bd                                ..%.
02:28:02.784855 IP6 2401:4900:889a:ed4:4698:7159:640b:3a7a.54876 > 2600:1413:5000:3::1736:7689.443: Flags [.], ack 2414720819, win 501, options [nop,nop,TS val 4219642778 ecr 3615120974], length 0
	0x0000:  6004 cda5 0020 0640 2401 4900 889a 0ed4  `......@$.I.....
	0x0010:  4698 7159 640b 3a7a 2600 1413 5000 0003  F.qYd.:z&...P...
	0x0020:  0000 0000 1736 7689 d65c 01bb 3c98 77f5  .....6v..\..<.w.
	0x0030:  8fed b733 8010 01f5 72e3 0000 0101 080a  ...3....r.......
	0x0040:  fb82 a39a d77a 5e4e                      .....z^N
02:28:02.861223 IP6 2600:1413:5000:3::1736:7689.443 > 2401:4900:889a:ed4:4698:7159:640b:3a7a.54876: Flags [.], ack 1, win 565, options [nop,nop,TS val 3615166586 ecr 4219597243], length 0
	0x0000:  6001 7651 0020 0637 2600 1413 5000 0003  `.vQ...7&...P...
	0x0010:  0000 0000 1736 7689 2401 4900 889a 0ed4  .....6v.$.I.....
	0x0020:  4698 7159 640b 3a7a 01bb d65c 8fed b733  F.qYd.:z...\...3
	0x0030:  3c98 77f6 8010 0235 58d0 0000 0101 080a  <.w....5X.......
	0x0040:  d77b 107a fb81 f1bb                      .{.z....
02:28:02.975669 ARP, Request who-has 192.168.1.17 tell 192.168.1.1, length 28
	0x0000:  0001 0800 0604 0001 78bb c11d 3e18 c0a8  ........x...>...
	0x0010:  0101 0000 0000 0000 c0a8 0111            ............
02:28:03.095839 IP 140.82.112.26.443 > 192.168.1.66.57580: Flags [.], ack 1, win 79, options [nop,nop,TS val 4052932483 ecr 636153035], length 0
	0x0000:  4500 0034 1a7b 4000 3406 6df2 8c52 701a  E..4.{@.4.m..Rp.
	0x0010:  c0a8 0142 01bb e0ec f937 5d03 6102 6aef  ...B.....7].a.j.
	0x0020:  8010 004f d775 0000 0101 080a f192 d783  ...O.u..........
	0x0030:  25ea eccb                                %...

