02:21:57.612217 ARP, Request who-has 192.168.1.17 tell 192.168.1.1, length 28
	0x0000:  0001 0800 0604 0001 78bb c11d 3e18 c0a8  ........x...>...
	0x0010:  0101 0000 0000 0000 c0a8 0111            ............
02:21:58.240767 IP6 2401:4900:889a:ed4:4698:7159:640b:3a7a.45260 > 2606:4700:8392:7cbc:c2a8:4:5ff2:75c4.443: Flags [.], ack 3290349551, win 467, options [nop,nop,TS val 543630977 ecr 1884537590], length 0
	0x0000:  600b dec4 0020 0640 2401 4900 889a 0ed4  `......@$.I.....
	0x0010:  4698 7159 640b 3a7a 2606 4700 8392 7cbc  F.qYd.:z&.G...|.
	0x0020:  c2a8 0004 5ff2 75c4 b0cc 01bb 33fc 996f  ...._.u.....3..o
	0x0030:  c41e bfef 8010 01d3 60c6 0000 0101 080a  ........`.......
	0x0040:  2067 2681 7053 c2f6                      .g&.pS..
02:21:58.250075 IP6 2606:4700:8392:7cbc:c2a8:4:5ff2:75c4.443 > 2401:4900:889a:ed4:4698:7159:640b:3a7a.45260: Flags [.], ack 1, win 16, options [nop,nop,TS val 1884582975 ecr 543585550], length 0
	0x0000:  688e 5242 0020 063b 2606 4700 8392 7cbc  h.RB...;&.G...|.
	0x0010:  c2a8 0004 5ff2 75c4 2401 4900 889a 0ed4  ...._.u.$.I.....
	0x0020:  4698 7159 640b 3a7a 01bb b0cc c41e bfef  F.qYd.:z........
	0x0030:  33fc 9970 8010 0010 9802 0000 0101 080a  3..p............
	0x0040:  7054 743f 2066 750e                      pTt?.fu.
02:21:58.635428 ARP, Request who-has 192.168.1.17 tell 192.168.1.1, length 28
	0x0000:  0001 0800 0604 0001 78bb c11d 3e18 c0a8  ........x...>...
	0x0010:  0101 0000 0000 0000 c0a8 0111            ............
02:21:58.968226 IP 192.168.1.66.50724 > 95.216.192.15.123: NTPv4, Client, length 48
	0x0000:  4500 004c a794 4000 4011 b13a c0a8 0142  E..L..@.@..:...B
	0x0010:  5fd8 c00f c624 007b 0038 e21b 2300 0920  _....$.{.8..#...
	0x0020:  0000 0000 0000 0000 0000 0000 0000 0000  ................
	0x0030:  0000 0000 0000 0000 0000 0000 0000 0000  ................
	0x0040:  0000 0000 d6f9 4f7d 9e21 d03b            ......O}.!.;
02:21:59.166933 IP 95.216.192.15.123 > 192.168.1.66.50724: NTPv4, Server, length 48
	0x0000:  4500 004c ac55 4000 3311 b979 5fd8 c00f  E..L.U@.3..y_...
	0x0010:  c0a8 0142 007b c624 0038 ed6b 2402 09e7  ...B.{.$.8.k$...
	0x0020:  0000 01cc 0000 0020 8647 4215 ec29 2551  .........GB..)%Q
	0x0030:  2f11 70da d6f9 4f7d 9e21 d03b ec29 26ef  /.p...O}.!.;.)&.
	0x0040:  147a b9cb ec29 26ef 147b 2240            .z...)&..{"@

